{
  "_format": "hh-sol-artifact-1",
  "contractName": "Assessment",
  "sourceName": "contracts/Assessment.sol",
  "abi": [
    {
      "inputs": [
        {
          "internalType": "uint256",
          "name": "initBalance",
          "type": "uint256"
        }
      ],
      "stateMutability": "payable",
      "type": "constructor"
    },
    {
      "inputs": [
        {
          "internalType": "uint256",
          "name": "balance",
          "type": "uint256"
        },
        {
          "internalType": "uint256",
          "name": "withdrawAmount",
          "type": "uint256"
        }
      ],
      "name": "InsufficientBalance",
      "type": "error"
    },
    {
      "anonymous": false,
      "inputs": [
        {
          "indexed": false,
          "internalType": "uint256",
          "name": "amount",
          "type": "uint256"
        }
      ],
      "name": "Deposit",
      "type": "event"
    },
    {
      "anonymous": false,
      "inputs": [
        {
          "indexed": true,
          "internalType": "address",
          "name": "previousOwner",
          "type": "address"
        },
        {
          "indexed": true,
          "internalType": "address",
          "name": "newOwner",
          "type": "address"
        }
      ],
      "name": "OwnershipTransferred",
      "type": "event"
    },
    {
      "anonymous": false,
      "inputs": [
        {
          "indexed": false,
          "internalType": "uint256",
          "name": "amount",
          "type": "uint256"
        }
      ],
      "name": "Withdraw",
      "type": "event"
    },
    {
      "inputs": [],
      "name": "balance",
      "outputs": [
        {
          "internalType": "uint256",
          "name": "",
          "type": "uint256"
        }
      ],
      "stateMutability": "view",
      "type": "function"
    },
    {
      "inputs": [
        {
          "internalType": "uint256",
          "name": "_amount",
          "type": "uint256"
        }
      ],
      "name": "deposit",
      "outputs": [],
      "stateMutability": "payable",
      "type": "function"
    },
    {
      "inputs": [],
      "name": "getBalance",
      "outputs": [
        {
          "internalType": "uint256",
          "name": "",
          "type": "uint256"
        }
      ],
      "stateMutability": "view",
      "type": "function"
    },
    {
      "inputs": [],
      "name": "getCurrentTimestamp",
      "outputs": [
        {
          "internalType": "uint256",
          "name": "",
          "type": "uint256"
        }
      ],
      "stateMutability": "view",
      "type": "function"
    },
    {
      "inputs": [
        {
          "internalType": "address",
          "name": "_address",
          "type": "address"
        }
      ],
      "name": "isOwner",
      "outputs": [
        {
          "internalType": "bool",
          "name": "",
          "type": "bool"
        }
      ],
      "stateMutability": "view",
      "type": "function"
    },
    {
      "inputs": [],
      "name": "owner",
      "outputs": [
        {
          "internalType": "address payable",
          "name": "",
          "type": "address"
        }
      ],
      "stateMutability": "view",
      "type": "function"
    },
    {
      "inputs": [
        {
          "internalType": "address payable",
          "name": "_newOwner",
          "type": "address"
        }
      ],
      "name": "transferOwnership",
      "outputs": [],
      "stateMutability": "nonpayable",
      "type": "function"
    },
    {
      "inputs": [
        {
          "internalType": "uint256",
          "name": "_withdrawAmount",
          "type": "uint256"
        }
      ],
      "name": "withdraw",
      "outputs": [],
      "stateMutability": "nonpayable",
      "type": "function"
    }
  ],
  "bytecode": "0x6080604052604051610b89380380610b89833981810160405281019061002591906100ad565b336000806101000a81548173ffffffffffffffffffffffffffffffffffffffff021916908373ffffffffffffffffffffffffffffffffffffffff16021790555080600181905550506100da565b600080fd5b6000819050919050565b61008a81610077565b811461009557600080fd5b50565b6000815190506100a781610081565b92915050565b6000602082840312156100c3576100c2610072565b5b60006100d184828501610098565b91505092915050565b610aa0806100e96000396000f3fe60806040526004361061007b5760003560e01c80638da5cb5b1161004e5780638da5cb5b1461013c578063b69ef8a814610167578063b6b55f2514610192578063f2fde38b146101ae5761007b565b806312065fe0146100805780632e1a7d4d146100ab5780632f54bf6e146100d45780636c9230db14610111575b600080fd5b34801561008c57600080fd5b506100956101d7565b6040516100a2919061069d565b60405180910390f35b3480156100b757600080fd5b506100d260048036038101906100cd91906106e9565b6101e1565b005b3480156100e057600080fd5b506100fb60048036038101906100f69190610774565b610332565b60405161010891906107bc565b60405180910390f35b34801561011d57600080fd5b5061012661038b565b604051610133919061069d565b60405180910390f35b34801561014857600080fd5b50610151610393565b60405161015e91906107f8565b60405180910390f35b34801561017357600080fd5b5061017c6103b7565b604051610189919061069d565b60405180910390f35b6101ac60048036038101906101a791906106e9565b6103bd565b005b3480156101ba57600080fd5b506101d560048036038101906101d0919061083f565b6104c3565b005b6000600154905090565b60008054906101000a900473ffffffffffffffffffffffffffffffffffffffff1673ffffffffffffffffffffffffffffffffffffffff163373ffffffffffffffffffffffffffffffffffffffff161461026f576040517f08c379a0000000000000000000000000000000000000000000000000000000008152600401610266906108ef565b60405180910390fd5b600060015490508160015410156102c157600154826040517fcf4791810000000000000000000000000000000000000000000000000000000081526004016102b892919061090f565b60405180910390fd5b81600160008282546102d39190610967565b9250508190555081816102e69190610967565b600154146102f7576102f661099b565b5b7f5b6b431d4476a211bb7d41c20d1aab9ae2321deee0d20be3d9fc9b1093fa6e3d82604051610326919061069d565b60405180910390a15050565b60008060009054906101000a900473ffffffffffffffffffffffffffffffffffffffff1673ffffffffffffffffffffffffffffffffffffffff168273ffffffffffffffffffffffffffffffffffffffff16149050919050565b600042905090565b60008054906101000a900473ffffffffffffffffffffffffffffffffffffffff1681565b60015481565b6000600154905060008054906101000a900473ffffffffffffffffffffffffffffffffffffffff1673ffffffffffffffffffffffffffffffffffffffff163373ffffffffffffffffffffffffffffffffffffffff1614610452576040517f08c379a0000000000000000000000000000000000000000000000000000000008152600401610449906108ef565b60405180910390fd5b816001600082825461046491906109ca565b92505081905550818161047791906109ca565b600154146104885761048761099b565b5b7f4d6ce1e535dbade1c23defba91e23b8f791ce5edc0cc320257a2b364e4e38426826040516104b7919061069d565b60405180910390a15050565b60008054906101000a900473ffffffffffffffffffffffffffffffffffffffff1673ffffffffffffffffffffffffffffffffffffffff163373ffffffffffffffffffffffffffffffffffffffff1614610551576040517f08c379a0000000000000000000000000000000000000000000000000000000008152600401610548906108ef565b60405180910390fd5b600073ffffffffffffffffffffffffffffffffffffffff168173ffffffffffffffffffffffffffffffffffffffff16036105c0576040517f08c379a00000000000000000000000000000000000000000000000000000000081526004016105b790610a4a565b60405180910390fd5b60008060009054906101000a900473ffffffffffffffffffffffffffffffffffffffff169050816000806101000a81548173ffffffffffffffffffffffffffffffffffffffff021916908373ffffffffffffffffffffffffffffffffffffffff1602179055508173ffffffffffffffffffffffffffffffffffffffff168173ffffffffffffffffffffffffffffffffffffffff167f8be0079c531659141344cd1fd0a4f28419497f9722a3daafe3b4186f6b6457e060405160405180910390a35050565b6000819050919050565b61069781610684565b82525050565b60006020820190506106b2600083018461068e565b92915050565b600080fd5b6106c681610684565b81146106d157600080fd5b50565b6000813590506106e3816106bd565b92915050565b6000602082840312156106ff576106fe6106b8565b5b600061070d848285016106d4565b91505092915050565b600073ffffffffffffffffffffffffffffffffffffffff82169050919050565b600061074182610716565b9050919050565b61075181610736565b811461075c57600080fd5b50565b60008135905061076e81610748565b92915050565b60006020828403121561078a576107896106b8565b5b60006107988482850161075f565b91505092915050565b60008115159050919050565b6107b6816107a1565b82525050565b60006020820190506107d160008301846107ad565b92915050565b60006107e282610716565b9050919050565b6107f2816107d7565b82525050565b600060208201905061080d60008301846107e9565b92915050565b61081c816107d7565b811461082757600080fd5b50565b60008135905061083981610813565b92915050565b600060208284031215610855576108546106b8565b5b60006108638482850161082a565b91505092915050565b600082825260208201905092915050565b7f596f7520617265206e6f7420746865206f776e6572206f66207468697320616360008201527f636f756e74000000000000000000000000000000000000000000000000000000602082015250565b60006108d960258361086c565b91506108e48261087d565b604082019050919050565b60006020820190508181036000830152610908816108cc565b9050919050565b6000604082019050610924600083018561068e565b610931602083018461068e565b9392505050565b7f4e487b7100000000000000000000000000000000000000000000000000000000600052601160045260246000fd5b600061097282610684565b915061097d83610684565b925082820390508181111561099557610994610938565b5b92915050565b7f4e487b7100000000000000000000000000000000000000000000000000000000600052600160045260246000fd5b60006109d582610684565b91506109e083610684565b92508282019050808211156109f8576109f7610938565b5b92915050565b7f496e76616c6964206e6577206f776e6572206164647265737300000000000000600082015250565b6000610a3460198361086c565b9150610a3f826109fe565b602082019050919050565b60006020820190508181036000830152610a6381610a27565b905091905056fea2646970667358221220056755aeb4776ac030f381edda844e46c8ba32ebfe32479e5a6c775e67b18abd64736f6c63430008110033",
  "linkReferences": {},
  "deployedLinkReferences": {}
}